{"abi":[{"type":"function","name":"createShipment","inputs":[{"name":"shipmentId","type":"bytes32","internalType":"bytes32"},{"name":"destination","type":"address","internalType":"address"}],"outputs":[],"stateMutability":"nonpayable"},{"type":"function","name":"deliverShipment","inputs":[{"name":"shipmentId","type":"bytes32","internalType":"bytes32"}],"outputs":[],"stateMutability":"nonpayable"},{"type":"function","name":"shipments","inputs":[{"name":"","type":"bytes32","internalType":"bytes32"}],"outputs":[{"name":"origin","type":"address","internalType":"address"},{"name":"handler","type":"address","internalType":"address"},{"name":"destination","type":"address","internalType":"address"},{"name":"status","type":"uint8","internalType":"enum SupplyChain.Status"},{"name":"timestamp","type":"uint256","internalType":"uint256"}],"stateMutability":"view"},{"type":"function","name":"transferCustody","inputs":[{"name":"shipmentId","type":"bytes32","internalType":"bytes32"},{"name":"newHandler","type":"address","internalType":"address"}],"outputs":[],"stateMutability":"nonpayable"},{"type":"event","name":"CustodyTransferred","inputs":[{"name":"shipmentId","type":"bytes32","indexed":true,"internalType":"bytes32"},{"name":"newHandler","type":"address","indexed":true,"internalType":"address"}],"anonymous":false},{"type":"event","name":"ShipmentCancelled","inputs":[{"name":"shipmentId","type":"bytes32","indexed":true,"internalType":"bytes32"}],"anonymous":false},{"type":"event","name":"ShipmentCreated","inputs":[{"name":"shipmentId","type":"bytes32","indexed":true,"internalType":"bytes32"},{"name":"origin","type":"address","indexed":true,"internalType":"address"},{"name":"destination","type":"address","indexed":true,"internalType":"address"}],"anonymous":false},{"type":"event","name":"ShipmentDelivered","inputs":[{"name":"shipmentId","type":"bytes32","indexed":true,"internalType":"bytes32"}],"anonymous":false}],"bytecode":{"object":"0x6080604052348015600e575f5ffd5b50610dba8061001c5f395ff3fe608060405234801561000f575f5ffd5b506004361061004a575f3560e01c80630cfe0c531461004e578063a462fe9a1461006a578063c4f61af714610086578063d87b4041146100a2575b5f5ffd5b610068600480360381019061006391906109b0565b6100d6565b005b610084600480360381019061007f91906109ee565b610382565b005b6100a0600480360381019061009b91906109b0565b6105ee565b005b6100bc60048036038101906100b791906109ee565b610884565b6040516100cd959493929190610ab3565b60405180910390f35b5f5f5f8481526020019081526020015f2090505f73ffffffffffffffffffffffffffffffffffffffff16815f015f9054906101000a900473ffffffffffffffffffffffffffffffffffffffff1673ffffffffffffffffffffffffffffffffffffffff1603610179576040517f08c379a000000000000000000000000000000000000000000000000000000000815260040161017090610b5e565b60405180910390fd5b806001015f9054906101000a900473ffffffffffffffffffffffffffffffffffffffff1673ffffffffffffffffffffffffffffffffffffffff163373ffffffffffffffffffffffffffffffffffffffff161461020a576040517f08c379a000000000000000000000000000000000000000000000000000000000815260040161020190610bc6565b60405180910390fd5b6001600381111561021e5761021d610a28565b5b8160020160149054906101000a900460ff16600381111561024257610241610a28565b5b148061028257505f600381111561025c5761025b610a28565b5b8160020160149054906101000a900460ff1660038111156102805761027f610a28565b5b145b6102c1576040517f08c379a00000000000000000000000000000000000000000000000000000000081526004016102b890610c2e565b60405180910390fd5b81816001015f6101000a81548173ffffffffffffffffffffffffffffffffffffffff021916908373ffffffffffffffffffffffffffffffffffffffff16021790555060018160020160146101000a81548160ff0219169083600381111561032b5761032a610a28565b5b02179055504281600301819055508173ffffffffffffffffffffffffffffffffffffffff16837ff239a375588c826aa8c5e4f03237a9b9454d754c2e84e432c7b2ceb3ee68f62a60405160405180910390a3505050565b5f5f5f8381526020019081526020015f2090505f73ffffffffffffffffffffffffffffffffffffffff16815f015f9054906101000a900473ffffffffffffffffffffffffffffffffffffffff1673ffffffffffffffffffffffffffffffffffffffff1603610425576040517f08c379a000000000000000000000000000000000000000000000000000000000815260040161041c90610b5e565b60405180910390fd5b806001015f9054906101000a900473ffffffffffffffffffffffffffffffffffffffff1673ffffffffffffffffffffffffffffffffffffffff163373ffffffffffffffffffffffffffffffffffffffff1614806104d05750806002015f9054906101000a900473ffffffffffffffffffffffffffffffffffffffff1673ffffffffffffffffffffffffffffffffffffffff163373ffffffffffffffffffffffffffffffffffffffff16145b61050f576040517f08c379a000000000000000000000000000000000000000000000000000000000815260040161050690610c96565b60405180910390fd5b6001600381111561052357610522610a28565b5b8160020160149054906101000a900460ff16600381111561054757610546610a28565b5b14610587576040517f08c379a000000000000000000000000000000000000000000000000000000000815260040161057e90610cfe565b60405180910390fd5b60028160020160146101000a81548160ff021916908360038111156105af576105ae610a28565b5b0217905550428160030181905550817fad84bc03ffc88d269c045288b6bd3d77f12f9ef79581b860c1538f4bd662f9ea60405160405180910390a25050565b5f73ffffffffffffffffffffffffffffffffffffffff165f5f8481526020019081526020015f205f015f9054906101000a900473ffffffffffffffffffffffffffffffffffffffff1673ffffffffffffffffffffffffffffffffffffffff161461068d576040517f08c379a000000000000000000000000000000000000000000000000000000000815260040161068490610d66565b60405180910390fd5b6040518060a001604052803373ffffffffffffffffffffffffffffffffffffffff1681526020013373ffffffffffffffffffffffffffffffffffffffff1681526020018273ffffffffffffffffffffffffffffffffffffffff1681526020015f60038111156106ff576106fe610a28565b5b8152602001428152505f5f8481526020019081526020015f205f820151815f015f6101000a81548173ffffffffffffffffffffffffffffffffffffffff021916908373ffffffffffffffffffffffffffffffffffffffff1602179055506020820151816001015f6101000a81548173ffffffffffffffffffffffffffffffffffffffff021916908373ffffffffffffffffffffffffffffffffffffffff1602179055506040820151816002015f6101000a81548173ffffffffffffffffffffffffffffffffffffffff021916908373ffffffffffffffffffffffffffffffffffffffff16021790555060608201518160020160146101000a81548160ff0219169083600381111561081357610812610a28565b5b0217905550608082015181600301559050508073ffffffffffffffffffffffffffffffffffffffff163373ffffffffffffffffffffffffffffffffffffffff16837fad4121e5f691968d803b528553913bf89e9d74e202ea16aa3643fc78ee78d5fe60405160405180910390a45050565b5f602052805f5260405f205f91509050805f015f9054906101000a900473ffffffffffffffffffffffffffffffffffffffff1690806001015f9054906101000a900473ffffffffffffffffffffffffffffffffffffffff1690806002015f9054906101000a900473ffffffffffffffffffffffffffffffffffffffff16908060020160149054906101000a900460ff16908060030154905085565b5f5ffd5b5f819050919050565b61093581610923565b811461093f575f5ffd5b50565b5f813590506109508161092c565b92915050565b5f73ffffffffffffffffffffffffffffffffffffffff82169050919050565b5f61097f82610956565b9050919050565b61098f81610975565b8114610999575f5ffd5b50565b5f813590506109aa81610986565b92915050565b5f5f604083850312156109c6576109c561091f565b5b5f6109d385828601610942565b92505060206109e48582860161099c565b9150509250929050565b5f60208284031215610a0357610a0261091f565b5b5f610a1084828501610942565b91505092915050565b610a2281610975565b82525050565b7f4e487b71000000000000000000000000000000000000000000000000000000005f52602160045260245ffd5b60048110610a6657610a65610a28565b5b50565b5f819050610a7682610a55565b919050565b5f610a8582610a69565b9050919050565b610a9581610a7b565b82525050565b5f819050919050565b610aad81610a9b565b82525050565b5f60a082019050610ac65f830188610a19565b610ad36020830187610a19565b610ae06040830186610a19565b610aed6060830185610a8c565b610afa6080830184610aa4565b9695505050505050565b5f82825260208201905092915050565b7f536869706d656e7420646f6573206e6f742065786973740000000000000000005f82015250565b5f610b48601783610b04565b9150610b5382610b14565b602082019050919050565b5f6020820190508181035f830152610b7581610b3c565b9050919050565b7f4e6f742063757272656e742068616e646c6572000000000000000000000000005f82015250565b5f610bb0601383610b04565b9150610bbb82610b7c565b602082019050919050565b5f6020820190508181035f830152610bdd81610ba4565b9050919050565b7f496e76616c6964207374617475730000000000000000000000000000000000005f82015250565b5f610c18600e83610b04565b9150610c2382610be4565b602082019050919050565b5f6020820190508181035f830152610c4581610c0c565b9050919050565b7f556e617574686f72697a656400000000000000000000000000000000000000005f82015250565b5f610c80600c83610b04565b9150610c8b82610c4c565b602082019050919050565b5f6020820190508181035f830152610cad81610c74565b9050919050565b7f4d75737420626520696e207472616e73697420746f2064656c697665720000005f82015250565b5f610ce8601d83610b04565b9150610cf382610cb4565b602082019050919050565b5f6020820190508181035f830152610d1581610cdc565b9050919050565b7f536869706d656e7420616c7265616479206578697374730000000000000000005f82015250565b5f610d50601783610b04565b9150610d5b82610d1c565b602082019050919050565b5f6020820190508181035f830152610d7d81610d44565b905091905056fea264697066735822122076f2554f10064d9f647770082dc1c00dfac4375e1d09761ccc7425d2c74dc75e64736f6c63430008230033","linkReferences":{}},"methodIdentifiers":{"createShipment(bytes32,address)":"c4f61af7","deliverShipment(bytes32)":"a462fe9a","shipments(bytes32)":"d87b4041","transferCustody(bytes32,address)":"0cfe0c53"},"id":0}